S01F0000456C6563747269635F48656174696E675F53797374656D2E73726563D7
S11300000C942A000C945B050C9482050C94A905AD
S11300100C943C000C943C000C943C000C943C006C
S11300200C943C000C943C000C943C000C943C005C
S11300300C943C000C943C000C943C000C943C004C
S11300400C943C000C943C000C943C000C943C003C
S11300500C943C0011241FBECFE5D8E0DEBFCDBF19
S113006020E0A0E6B0E001C01D92A737B207E1F797
S11300700E943E000C941C070C9400000E94850012
S11300800E947301FDCF60916E006B34C8F48091BF
S11300906F00811115C0109260006B5F60936E0059
S11300A082E00E94910260916E0084E090E00E94E0
S11300B0BF0464E080E00E9453021092610008953E
S11300C082E00E9491020895609170006432C8F049
S11300D080916F00811115C010926000655060938B
S11300E0700082E00E9491026091700087E090E0CD
S11300F00E94BF0465E080E00E94530210926100F8
S1130100089582E00E94910208958CE380936E002A
S11301108093700080936D0010926C0010926100C7
S113012081E080936F008093600062E080E00E9431
S1130130D10462E081E00E94D10462E082E00E9486
S1130140D10463E470E080E00E94460564E670E058
S113015081E00E94460562EF71E082E00E9446055C
S113016080E00E94690266E081E00E943B0267E051
S113017081E00E943B0244E063E082E00E947D0251
S113018041E064E083E00E94DC0265E081E00E94DB
S1130190470263E080E00E94470264E080E00E943E
S11301A0470265E080E00E94470260916E0084E0AF
S11301B090E00E94BF046091700087E090E00E948C
S11301C0BF0408950EC064E083E00E94BD028091E4
S11301D061008F5F80936100853019F481E0809322
S11301E0600080916100863040F48091600081114C
S11301F004C080916F00882331F30895CF92DF9279
S1130200EF92FF920F931F930E946C0280936D00F4
S1130210682F82E00E94910264E080E00E94530211
S11302202FEF80E792E0215080409040E1F700C03A
S1130230000080916C008A3011F410926C00C09020
S11302406C00EC2DF0E0EE59FF4F80916D0080833F
S1130250C394C0926C0080E090E000E010E098014C
S113026009C0FC01EE59FF4F4081040F111D211DEF
S1130270311D01964C2D50E08417950794F3D12C31
S1130280E12CF12CC901B801A70196010E94FA06DC
S1130290CA01B9011F910F91FF90EF90DF90CF90A9
S11302A00895811109C090916F00911105C067E014
S11302B081E00E943F020895813019F467E00E94B2
S11302C043020895811109C090916F00911105C0F6
S11302D066E081E00E943F020895813019F466E0EF
S11302E00E9443020895CF92DF92EF92FF920E9400
S11302F0E20080916100853008F450C080916F0065
S113030081114CC063E00E944B020E94FE006B010D
S11303107C0140E064E083E00E94DC0260916D00B7
S113032082E00E94910280916E0090E00596092E71
S1130330000CAA0BBB0B8C159D05AE05BF0558F42C
S113034080E00E94620181E00E94510165E081E049
S11303500E94530242C08091700090E00597092EDC
S1130360000CAA0BBB0BC816D906EA06FB0658F408
S113037081E00E94620180E00E94510165E081E019
S11303800E944B022AC081E00E94620181E00E9427
S1130390510165E081E00E944F021FC080916F000F
S11303A0811106C040E064E083E00E94DC0215C0D5
S11303B041E064E083E00E94DC0265E081E00E94A9
S11303C04F0263E080E00E944F0264E080E00E94FC
S11303D04F0265E080E00E944F02FF90EF90DF90B3
S11303E0CF90089560916D0082E00E949102809107
S11303F06F008130C1F465E080E00E945302609197
S11304006D0083E00E94910284E090E00E94CA049F
S113041080936E0087E090E00E94CA04809370008D
S113042010926F00089565E081E00E944F02609190
S11304306E0084E090E00E94BF046091700087E049
S113044090E00E94BF048CE380936E008093700060
S113045041E064E083E00E94DC0265E080E00E9409
S1130460530281E00E94510181E00E94620181E017
S113047080936F00089541E00E941903089541E0BC
S11304800E948603089540E00E948603089541E097
S11304900E941903089541E00E948603089540E0F4
S11304A00E9486030895CF93DF93C82FD62F0E940E
S11304B0F303813031F440E06D2F8C2F0E948603CA
S11304C005C041E06D2F8C2F0E948603DF91CF91F0
S11304D008950E94F20208950E940A03BC0180E07C
S11304E090E00E94FF0520E030E04AEF5EE30E94C6
S11304F065060E94D005862F0895CF93DF93C62FFB
S1130500D42F61E00E94510441E06D2F8C2F0E9492
S1130510190341E06D2F8C2F0E948603DF91CF9148
S11305200895CF93DF93D82F262FCDEC6C9FC12D48
S113053011246C2F669566956695862F880F982FE3
S1130540990F990F890F622F681B8D2F0E947504D4
S11305506C2F6695669566956295607F8D2F0E94D7
S11305609A042FEF80E792E0215080409040E1F719
S113057000C00000DF91CF910895CF93DF93C82F7F
S1130580D62F0E94F303813031F440E06D2F8C2F7D
S11305900E94860305C041E06D2F8C2F0E948603C4
S11305A02FEF89E698E1215080409040E1F700C0A8
S11305B00000DF91CF910895413051F4EFE1FEE462
S11305C03197F1F700C0000040E00E9486030895CF
S11305D0EFE1FEE43197F1F700C0000041E00E9432
S11305E08603089540E0682F80E00E94190386B1D5
S11305F0887F86B986B1876086B987B18F7787B9D6
S113060087B1806487B987B18F7D87B986B18068E7
S113061086B9089586B1806486B9349BFECF86B1CD
S1130620806186B924B185B190E0982F8827822B08
S11306300895813001F130F08230B1F1833009F452
S11306404CC00895413059F42AB381E090E002C0CF
S1130650880F991F6A95E2F7822B8ABB08952AB303
S113066081E090E002C0880F991F6A95E2F78095B7
S113067082238ABB0895413059F427B381E090E086
S113068002C0880F991F6A95E2F7822B87BB0895F1
S113069027B381E090E002C0880F991F6A95E2F7C2
S11306A08095822387BB0895413059F424B381E0B7
S11306B090E002C0880F991F6A95E2F7822B84BBF1
S11306C0089524B381E090E002C0880F991F6A95D1
S11306D0E2F78095822384BB0895413059F421B315
S11306E081E090E002C0880F991F6A95E2F7822B9F
S11306F081BB089521B381E090E002C0880F991F67
S11307006A95E2F78095822381BB0895813001F1D7
S113071030F08230B1F1833009F44CC00895413097
S113072059F42BB381E090E002C0880F991F6A95B9
S1130730E2F7822B8BBB08952BB381E090E002C0DB
S1130740880F991F6A95E2F7809582238BBB0895E1
S1130750413059F428B381E090E002C0880F991F1A
S11307606A95E2F7822B88BB089528B381E090E074
S113077002C0880F991F6A95E2F78095822388BB8F
S11307800895413059F425B381E090E002C0880F08
S1130790991F6A95E2F7822B85BB089525B381E002
S11307A090E002C0880F991F6A95E2F78095822332
S11307B085BB0895413059F422B381E090E002C032
S11307C0880F991F6A95E2F7822B82BB089522B3A2
S11307D081E090E002C0880F991F6A95E2F7809546
S11307E0822382BB08958130E1F030F0823071F1D0
S11307F0833009F440C053C049B381E090E09C01C8
S1130800062E02C0220F331F0A94E2F7842F90E0D1
S11308108223932302C0969587956A95E2F7982FD1
S11308203EC046B381E090E09C01062E02C0220F38
S1130830331F0A94E2F7842F90E08223932302C0AB
S1130840969587956A95E2F7982F29C043B381E07E
S113085090E09C01062E02C0220F331F0A94E2F797
S1130860842F90E08223932302C0969587956A95FE
S1130870E2F7982F14C040B381E090E09C01062E6B
S113088002C0220F331F0A94E2F7842F90E08223E0
S1130890932302C0969587956A95E2F7982F892F3E
S11308A00895813069F028F0823089F08330B1F006
S11308B00895613019F48FEF8ABB08951ABA089528
S11308C0613019F48FEF87BB089517BA089561302A
S11308D019F48FEF84BB089514BA0895613019F4A4
S11308E08FEF81BB089511BA08956F70813069F05C
S11308F028F0823089F08330B1F008958BB3807F83
S11309008BBB8BB3682B6BBB089588B3807F88BB8C
S113091088B3682B68BB089585B3807F85BB85B396
S1130920682B65BB089582B3807F82BB82B3682B3A
S113093062BB0895607F813069F028F0823089F0CD
S11309408330B1F008958BB38F708BBB8BB3682B5E
S11309506BBB089588B38F7088BB88B3682B68BB62
S1130960089585B38F7085BB85B3682B65BB0895E7
S113097082B38F7082BB82B3682B62BB08958EBB37
S11309809FBB6DBB84E08CBB8CB382608CBBE19954
S1130990FECF08958EBB9FBB8CB381608CBB8DB39F
S11309A00895CF93C62F9FB790689FBF813079F188
S11309B020F0823009F455C067C040E062E083E073
S11309C00E941903C11107C085B78E7F85BF85B703
S11309D08D7F85BF18C0C13039F485B78E7F85BF40
S11309E085B7826085BF0FC0C23039F485B7816096
S11309F085BF85B7826085BF06C085B7816085BF26
S1130A0085B78D7F85BF8BB780648BBF3DC040E0C9
S1130A1063E083E00E941903C11107C085B78B7F8F
S1130A2085BF85B7877F85BF18C0C13039F485B7C6
S1130A308B7F85BF85B7886085BF0FC0C23039F40E
S1130A4085B7846085BF85B7886085BF06C085B7D4
S1130A50846085BF85B7877F85BF8BB780688BBF70
S1130A6013C040E062E081E00E941903C13021F428
S1130A7084B78F7B84BF05C0C23019F484B7806407
S1130A8084BF8BB780628BBFCF910895813049F0CA
S1130A9018F0823059F008957093740060937300D5
S1130AA008957093760060937500089570937200B2
S1130AB06093710008951F920F920FB60F92112444
S1130AC02F933F934F935F936F937F938F939F9352
S1130AD0AF93BF93EF93FF93E0917300F091740091
S1130AE00995FF91EF91BF91AF919F918F917F9164
S1130AF06F915F914F913F912F910F900FBE0F9087
S1130B001F9018951F920F920FB60F9211242F93D6
S1130B103F934F935F936F937F938F939F93AF9381
S1130B20BF93EF93FF93E0917500F09176000995E0
S1130B30FF91EF91BF91AF919F918F917F916F91B1
S1130B405F914F913F912F910F900FBE0F901F9087
S1130B5018951F920F920FB60F9211242F933F9363
S1130B604F935F936F937F938F939F93AF93BF93B1
S1130B70EF93FF93E0917100F09172000995FF915A
S1130B80EF91BF91AF919F918F917F916F915F9101
S1130B904F913F912F910F900FBE0F901F9018957A
S1130BA00E94440688F09F5798F0B92F9927B751AF
S1130BB0B0F0E1F0660F771F881F991F1AF0BA95FD
S1130BC0C9F714C0B13091F00E945E06B1E00895F7
S1130BD00C945E06672F782F8827B85F39F0B93FE9
S1130BE0CCF3869577956795B395D9F73EF49095B0
S1130BF08095709561957F4F8F4F9F4F0895E8942E
S1130C0009C097FB3EF490958095709561957F4F50
S1130C108F4F9F4F9923A9F0F92F96E9BB279395FE
S1130C20F695879577956795B795F111F8CFFAF40E
S1130C30BB0F11F460FF1BC06F5F7F4F8F4F9F4F3F
S1130C4016C0882311F096E911C0772321F09EE89D
S1130C50872F762F05C0662371F096E8862F70E003
S1130C6060E02AF09A95660F771F881FDAF7880FDD
S1130C709695879597F9089557FD9058440F551FF9
S1130C8059F05F3F71F04795880F97FB991F61F00A
S1130C909F3F79F087950895121613061406551F81
S1130CA0F2CF4695F1DF08C0161617061806991FED
S1130CB0F1CF86957105610508940895E894BB27E2
S1130CC066277727CB0197F908950E9478060C943C
S1130CD0E9060E94DB0638F00E94E20620F0952324
S1130CE011F00C94D2060C94D80611240C945F06CF
S1130CF00E943C0670F3959FC1F3950F50E0551F79
S1130D00629FF001729FBB27F00DB11D639FAA275C
S1130D10F00DB11DAA1F649F6627B00DA11D661FAB
S1130D20829F2227B00DA11D621F739FB00DA11DCC
S1130D30621F839FA00D611D221F749F3327A00D86
S1130D40611D231F849F600D211D822F762F6A2F22
S1130D5011249F5750409AF0F1F088234AF0EE0F87
S1130D60FF1FBB1F661F771F881F91505040A9F7B4
S1130D709E3F510580F00C94D2060C945F065F3FB1
S1130D80E4F3983ED4F3869577956795B795F795F0
S1130D90E7959F5FC1F7FE2B880F911D9695879568
S1130DA097F9089597F99F6780E870E060E00895E7
S1130DB09FEF80EC089500240A941616170618066F
S1130DC00906089500240A9412161306140605064B
S1130DD00895092E0394000C11F4882352F0BB0FDC
S1130DE040F4BF2B11F460FF04C06F5F7F4F8F4F3F
S1130DF09F4F0895A1E21A2EAA1BBB1BFD010DC033
S1130E00AA1FBB1FEE1FFF1FA217B307E407F507B6
S1130E1020F0A21BB30BE40BF50B661F771F881F92
S1130E20991F1A9469F760957095809590959B0128
S10F0E30AC01BD01CF010895F894FFCF80
S9030000FC
